:103C80001F92CDB7DEB7112485B715BE982F9D7052
:103C900009F006D185E08093710082E086BD88E15D
:103CA00085BD86E084BD88E081BD8EE0E6D0409A87
:103CB00026E088E19EEF30E890936F0080936E00DD
:103CC00039BF09B607FEFDCF389AA8952150A1F754
:103CD00080E49EE1D92E612C712CCC24C39425E084
:103CE000B22E33E0A32E7C01BFD0813479F4BCD056
:103CF0008983C7D08981823811F482E005C0813878
:103D000011F486E001C083E0AAD0A6C0823411F489
:103D100084E103C0853419F485E0BBD09DC08535AE
:103D200041F4A2D0682EA0D0712C782A660C771CA2
:103D300092C0863521F484E0ACD080E0E5CF8436B3
:103D400009F053C091D090D0982E8ED0882E00E0EC
:103D500011E08AD0F80181938F019E12FACF91D0A1
:103D600061147104C1F420910201209344019091E7
:103D70000301909345018091160180934601809143
:103D80001701809347012093160190931701E09249
:103D90000201D0920301F5E48F1201C0FFCFC301ED
:103DA0008F779927892B31F4F301A7BEE89507B6E1
:103DB00000FCFDCFA301A0E0B1E02C911296CD0153
:103DC0000197FC01808130E0382BFA010901C7BE60
:103DD000E89511244E5F5F4F9A12EFCFF301B7BE03
:103DE000E89507B600FCFDCF37C0843739F53CD0E5
:103DF0003BD0982E39D045D08301960C0230110566
:103E000019F48091440114C00330110519F4809114
:103E100045010EC00631110519F48091460108C014
:103E20000731110519F48091470102C0F80184910E
:103E30000F5F1F4F14D09012E1CF0EC0853739F4B9
:103E400020D08EE10CD084E90AD082E15DCF8135AB
:103E500011F488E012D015D080E101D045CF06B42E
:103E600005FEFDCF80BD089506B407FEFDCF06B464
:103E700004FC01C0A89580B5089598ED9FBD80BF52
:103E80000895F2DF803219F088E0F7DFFFCF84E198
:103E9000E6CFCF93C82FE8DFC150E9F7CF91F1CF3C
:0C3EA000282E80E0EADFEAE0FF2709940A
:023FFE000206B9
:0400000300003C803D
:00000001FF
